{
  "abi": [
    {
      "inputs": [
        {
          "components": [
            {
              "internalType": "bytes",
              "name": "seal",
              "type": "bytes"
            },
            {
              "components": [
                {
                  "internalType": "bytes32",
                  "name": "preStateDigest",
                  "type": "bytes32"
                },
                {
                  "internalType": "bytes32",
                  "name": "postStateDigest",
                  "type": "bytes32"
                },
                {
                  "components": [
                    {
                      "internalType": "enum SystemExitCode",
                      "name": "system",
                      "type": "uint8"
                    },
                    {
                      "internalType": "uint8",
                      "name": "user",
                      "type": "uint8"
                    }
                  ],
                  "internalType": "struct ExitCode",
                  "name": "exitCode",
                  "type": "tuple"
                },
                {
                  "internalType": "bytes32",
                  "name": "input",
                  "type": "bytes32"
                },
                {
                  "internalType": "bytes32",
                  "name": "output",
                  "type": "bytes32"
                }
              ],
              "internalType": "struct ReceiptMetadata",
              "name": "meta",
              "type": "tuple"
            }
          ],
          "internalType": "struct Receipt",
          "name": "receipt",
          "type": "tuple"
        }
      ],
      "name": "verify",
      "outputs": [
        {
          "internalType": "bool",
          "name": "",
          "type": "bool"
        }
      ],
      "stateMutability": "view",
      "type": "function"
    },
    {
      "inputs": [
        {
          "internalType": "bytes",
          "name": "seal",
          "type": "bytes"
        },
        {
          "internalType": "bytes32",
          "name": "imageId",
          "type": "bytes32"
        },
        {
          "internalType": "bytes32",
          "name": "postStateDigest",
          "type": "bytes32"
        },
        {
          "internalType": "bytes32",
          "name": "journalHash",
          "type": "bytes32"
        }
      ],
      "name": "verify",
      "outputs": [
        {
          "internalType": "bool",
          "name": "",
          "type": "bool"
        }
      ],
      "stateMutability": "view",
      "type": "function"
    },
    {
      "inputs": [
        {
          "internalType": "uint256[2]",
          "name": "_pA",
          "type": "uint256[2]"
        },
        {
          "internalType": "uint256[2][2]",
          "name": "_pB",
          "type": "uint256[2][2]"
        },
        {
          "internalType": "uint256[2]",
          "name": "_pC",
          "type": "uint256[2]"
        },
        {
          "internalType": "uint256[4]",
          "name": "_pubSignals",
          "type": "uint256[4]"
        }
      ],
      "name": "verifyProof",
      "outputs": [
        {
          "internalType": "bool",
          "name": "",
          "type": "bool"
        }
      ],
      "stateMutability": "view",
      "type": "function"
    }
  ],
  "bytecode": {
    "object": "0x608060405234801561001057600080fd5b50610fb6806100206000396000f3fe608060405234801561001057600080fd5b50600436106100415760003560e01c806304b18430146100465780635fe8c13b1461006d5780636efef00914610080575b600080fd5b610059610054366004610b69565b610093565b604051901515815260200160405180910390f35b61005961007b366004610c91565b610195565b61005961008e366004610ceb565b61070d565b60008060006100ad6100a88560200151610785565b6108e8565b91509150600084600001518060200190518101906100cb9190610d8f565b9050306001600160a01b0316635fe8c13b82600001518360200151846040015160405180608001604052806f1eece9585d11a13832b205d334d9747881526020016f06b74fed6685c71e0cf31d881093df868152602001898152602001888152506040518563ffffffff1660e01b815260040161014b9493929190610e52565b602060405180830381865afa158015610168573d6000803e3d6000fd5b505050506040513d601f19601f8201168201806040525081019061018c9190610ef9565b95945050505050565b60006106a8565b7f30644e72e131a029b85045b68181585d97816a916871ca8d3c208c16d87cfd4781106101cd576000805260206000f35b50565b600060405183815284602082015285604082015260408160608360076107d05a03fa915081610203576000805260206000f35b825160408201526020830151606082015260408360808360066107d05a03fa91505080610234576000805260206000f35b5050505050565b7f0bae4e8249e16a7a60ccd0215fbe09b3850e8c18213acdb7f3e778e83909cb5585527f295a20c060882ebb89c0339f67c0659b89ab239bfa1239943d6e73841804e11c6020860152600060808601866102d887357f1b88e5dd5422d4c00bda2bc18bc9ac5aba22b30f81d6f6f68620226b984ac2667f094bd9c4b3869496bcf8ab0f733cc6b64243b5d408d09b701b16e7ddd124b17e846101d0565b61032860208801357f0f680c08630f998c5fac176e593c8c7ee279105baff2d93aeaed5a5add0ccfd67f2110dccdaf8ae02a1da45b139c06df34536f19e6826d66879420751a419c1a10846101d0565b61037860408801357f25ee06c4f9429471049948199b2973a538d9baff5425b52ce978bc88547ddc237f0e65c1c9ab69133c2e7399aa172eb5a89ccb7e7ba844a10f87c8cc729a0b3b79846101d0565b6103c860608801357f23fdad98b64dbcbc1866faf6f7da3d769c91699bb729c94271dc428811d95e517f0b7c7639a64cb5505831eb09e75d41862c63b1f3ec55fc432a60b989eeaad5a5846101d0565b50823581527f30644e72e131a029b85045b68181585d97816a916871ca8d3c208c16d87cfd4760208401357f30644e72e131a029b85045b68181585d97816a916871ca8d3c208c16d87cfd4703066020820152833560408201526020840135606082015260408401356080820152606084013560a08201527f2d4d9aa7e302d9df41749d5507949d05dbea33fbb16c643b22f599a2be6df2e260c08201527f14bedd503c37ceb061d8ec60209fe345ce89830a19230301f076caff004d192660e08201527f0967032fcbf776d1afc985f88877f182d38480a653f2decaa9794cbc3bf3060c6101008201527f0e187847ad4c798374d0d6732bf501847dd68bc0e071241e0213bc7fc13db7ab6101208201527f304cfbd1e08a704a99f5e847d93f8c3caafddec46b7a0d379da69a4d112346a76101408201527f1739c1b1a457a8c7313123d24d2f9192f896b7c63eea05a9d57f06547ad0cec8610160820152600087015161018082015260206000018701516101a08201527f198e9393920d483a7260bfb731fb5d25f1aa493335a9e71297e485b7aef312c26101c08201527f1800deef121f1e76426a00665e5c4479674322d4f75edadd46debd5cd992f6ed6101e08201527f090689d0585ff075ec9e99ad690c3395bc4b313370b38ef355acdadcd122975b6102008201527f12c85ea5db8c6deb4aab71808dcb408fe3d1e7690c43d37b4ce6cc0166fa7daa610220820152843561024082015260208501356102608201527f0a6008ab4cc1bd4d647ed2cff1e0b8ca0054671933e88db5a3b9ddd1da3e639b6102808201527f10c52794a66c080c8ac9277927ca7445ca3ddd0329d8608d7597717b7c92ff9c6102a08201527f072d09dcb173b12b4fb9e03211117343ccddcfe1b0ed51773de3a1d4b77a39ef6102c08201527f2a76ad9b76212033cf9639834b6c49af0f1edff4a14d9573bed2a1e045c70ce26102e08201526020816103008360086107d05a03fa9051169695505050505050565b60405161038081016040526106c0600084013561019c565b6106cd602084013561019c565b6106da604084013561019c565b6106e7606084013561019c565b6106f4608084013561019c565b610701818486888a61023b565b90508060005260206000f35b60008060405180604001604052808781526020016040518060a0016040528088815260200187815260200160405180604001604052806000600281111561075657610756610f22565b8152600060209182018190529183528201526040018690529052905061077b81610093565b9695505050505050565b60006002806040516107ae907072697363302e526563656970744d65746160781b815260110190565b602060405180830381855afa1580156107cb573d6000803e3d6000fd5b5050506040513d601f19601f820116820180604052508101906107ee9190610f38565b6060840151845160208601516080870151604088015151601890600281111561081957610819610f22565b60408a810151602090810151825191820199909952908101969096526060860194909452608085019290925260a084015263ffffffff909116901b60e01b6001600160e01b03191660c082015260f89190911b6001600160f81b03191660c4820152600160fa1b60c882015260ca0160408051601f19818403018152908290526108a291610f51565b602060405180830381855afa1580156108bf573d6000803e3d6000fd5b5050506040513d601f19601f820116820180604052508101906108e29190610f38565b92915050565b60008080610a358460008190506008817eff00ff00ff00ff00ff00ff00ff00ff00ff00ff00ff00ff00ff00ff00ff00ff16901b6008827fff00ff00ff00ff00ff00ff00ff00ff00ff00ff00ff00ff00ff00ff00ff00ff0016901c1790506010817dffff0000ffff0000ffff0000ffff0000ffff0000ffff0000ffff0000ffff16901b6010827fffff0000ffff0000ffff0000ffff0000ffff0000ffff0000ffff0000ffff000016901c1790506020817bffffffff00000000ffffffff00000000ffffffff00000000ffffffff16901b6020827fffffffff00000000ffffffff00000000ffffffff00000000ffffffff0000000016901c17905060408177ffffffffffffffff0000000000000000ffffffffffffffff16901b60408277ffffffffffffffff0000000000000000ffffffffffffffff1916901c179050608081901b608082901c179050919050565b6fffffffffffffffffffffffffffffffff81169560809190911c945092505050565b634e487b7160e01b600052604160045260246000fd5b6040805190810167ffffffffffffffff81118282101715610a9057610a90610a57565b60405290565b60405160a0810167ffffffffffffffff81118282101715610a9057610a90610a57565b6040516060810167ffffffffffffffff81118282101715610a9057610a90610a57565b600082601f830112610aed57600080fd5b813567ffffffffffffffff80821115610b0857610b08610a57565b604051601f8301601f19908116603f01168101908282118183101715610b3057610b30610a57565b81604052838152866020858801011115610b4957600080fd5b836020870160208301376000602085830101528094505050505092915050565b600060208284031215610b7b57600080fd5b813567ffffffffffffffff80821115610b9357600080fd5b9083019081850360e0811215610ba857600080fd5b610bb0610a6d565b833583811115610bbf57600080fd5b610bcb88828701610adc565b82525060c0601f1983011215610be057600080fd5b610be8610a96565b925060208401358352604084013560208401526040605f1983011215610c0d57600080fd5b610c15610a6d565b9150606084013560038110610c2957600080fd5b8252608084013560ff81168114610c3f57600080fd5b602083810191909152604084019290925260a0840135606084015260c09093013560808301528201529392505050565b80604081018310156108e257600080fd5b80608081018310156108e257600080fd5b6000806000806101808587031215610ca857600080fd5b610cb28686610c6f565b9350610cc18660408701610c80565b9250610cd08660c08701610c6f565b9150610ce0866101008701610c80565b905092959194509250565b60008060008060808587031215610d0157600080fd5b843567ffffffffffffffff811115610d1857600080fd5b610d2487828801610adc565b97602087013597506040870135966060013595509350505050565b600082601f830112610d5057600080fd5b610d58610a6d565b806040840185811115610d6a57600080fd5b845b81811015610d84578051845260209384019301610d6c565b509095945050505050565b60006101008284031215610da257600080fd5b610daa610ab9565b610db48484610d3f565b8152604084605f850112610dc757600080fd5b610dcf610a6d565b8060c0860187811115610de157600080fd5b8387015b81811015610e0657610df78982610d3f565b84526020909301928401610de5565b50816020860152610e178882610d3f565b84860152505050508091505092915050565b8060005b6002811015610e4c578151845260209384019390910190600101610e2d565b50505050565b6101808101610e618287610e29565b60408083018660005b6002808210610e795750610eb4565b82518460005b83811015610e9d578251825260209283019290910190600101610e7f565b505050928401925060209190910190600101610e6a565b50505050610ec560c0830185610e29565b61010082018360005b6004811015610eed578151835260209283019290910190600101610ece565b50505095945050505050565b600060208284031215610f0b57600080fd5b81518015158114610f1b57600080fd5b9392505050565b634e487b7160e01b600052602160045260246000fd5b600060208284031215610f4a57600080fd5b5051919050565b6000825160005b81811015610f725760208186018101518583015201610f58565b50600092019182525091905056fea26469706673582212200e0d6d94317f0077655ad8c3b80b888314f69382f74a192f3b4a57cc0b27580764736f6c63430008140033",
    "linkReferences": {}
  },
  "methodIdentifiers": {
    "verify((bytes,(bytes32,bytes32,(uint8,uint8),bytes32,bytes32)))": "04b18430",
    "verify(bytes,bytes32,bytes32,bytes32)": "6efef009",
    "verifyProof(uint256[2],uint256[2][2],uint256[2],uint256[4])": "5fe8c13b"
  },
  "id": 11
}