{
  "abi": [
    {
      "inputs": [
        {
          "internalType": "uint256",
          "name": "expectedChainId",
          "type": "uint256"
        }
      ],
      "stateMutability": "nonpayable",
      "type": "constructor"
    },
    {
      "anonymous": false,
      "inputs": [
        {
          "indexed": false,
          "internalType": "address",
          "name": "account",
          "type": "address"
        },
        {
          "indexed": false,
          "internalType": "bytes32",
          "name": "imageId",
          "type": "bytes32"
        },
        {
          "indexed": false,
          "internalType": "bytes",
          "name": "input",
          "type": "bytes"
        },
        {
          "indexed": false,
          "internalType": "address",
          "name": "callbackContract",
          "type": "address"
        },
        {
          "indexed": false,
          "internalType": "bytes4",
          "name": "functionSelector",
          "type": "bytes4"
        },
        {
          "indexed": false,
          "internalType": "uint64",
          "name": "gasLimit",
          "type": "uint64"
        }
      ],
      "name": "CallbackRequest",
      "type": "event"
    },
    {
      "inputs": [
        {
          "internalType": "bytes32",
          "name": "",
          "type": "bytes32"
        },
        {
          "internalType": "bytes",
          "name": "",
          "type": "bytes"
        },
        {
          "components": [
            {
              "internalType": "bytes",
              "name": "seal",
              "type": "bytes"
            },
            {
              "internalType": "bytes32",
              "name": "postStateDigest",
              "type": "bytes32"
            }
          ],
          "internalType": "struct CallbackAuthorization",
          "name": "auth",
          "type": "tuple"
        }
      ],
      "name": "callbackIsAuthorized",
      "outputs": [
        {
          "internalType": "bool",
          "name": "",
          "type": "bool"
        }
      ],
      "stateMutability": "pure",
      "type": "function"
    },
    {
      "inputs": [
        {
          "components": [
            {
              "components": [
                {
                  "internalType": "bytes",
                  "name": "seal",
                  "type": "bytes"
                },
                {
                  "internalType": "bytes32",
                  "name": "postStateDigest",
                  "type": "bytes32"
                }
              ],
              "internalType": "struct CallbackAuthorization",
              "name": "auth",
              "type": "tuple"
            },
            {
              "internalType": "address",
              "name": "callbackContract",
              "type": "address"
            },
            {
              "internalType": "bytes",
              "name": "payload",
              "type": "bytes"
            },
            {
              "internalType": "uint64",
              "name": "gasLimit",
              "type": "uint64"
            }
          ],
          "internalType": "struct Callback",
          "name": "callback",
          "type": "tuple"
        }
      ],
      "name": "invokeCallback",
      "outputs": [],
      "stateMutability": "nonpayable",
      "type": "function"
    },
    {
      "inputs": [
        {
          "components": [
            {
              "components": [
                {
                  "internalType": "bytes",
                  "name": "seal",
                  "type": "bytes"
                },
                {
                  "internalType": "bytes32",
                  "name": "postStateDigest",
                  "type": "bytes32"
                }
              ],
              "internalType": "struct CallbackAuthorization",
              "name": "auth",
              "type": "tuple"
            },
            {
              "internalType": "address",
              "name": "callbackContract",
              "type": "address"
            },
            {
              "internalType": "bytes",
              "name": "payload",
              "type": "bytes"
            },
            {
              "internalType": "uint64",
              "name": "gasLimit",
              "type": "uint64"
            }
          ],
          "internalType": "struct Callback[]",
          "name": "callbacks",
          "type": "tuple[]"
        }
      ],
      "name": "invokeCallbacks",
      "outputs": [
        {
          "internalType": "bool[]",
          "name": "invocationResults",
          "type": "bool[]"
        }
      ],
      "stateMutability": "nonpayable",
      "type": "function"
    },
    {
      "inputs": [
        {
          "internalType": "bytes",
          "name": "payload",
          "type": "bytes"
        }
      ],
      "name": "parsePayload",
      "outputs": [
        {
          "internalType": "bytes32",
          "name": "",
          "type": "bytes32"
        },
        {
          "internalType": "bytes",
          "name": "",
          "type": "bytes"
        }
      ],
      "stateMutability": "pure",
      "type": "function"
    },
    {
      "inputs": [
        {
          "internalType": "bytes32",
          "name": "imageId",
          "type": "bytes32"
        },
        {
          "internalType": "bytes",
          "name": "input",
          "type": "bytes"
        },
        {
          "internalType": "address",
          "name": "callbackContract",
          "type": "address"
        },
        {
          "internalType": "bytes4",
          "name": "functionSelector",
          "type": "bytes4"
        },
        {
          "internalType": "uint64",
          "name": "gasLimit",
          "type": "uint64"
        }
      ],
      "name": "requestCallback",
      "outputs": [],
      "stateMutability": "nonpayable",
      "type": "function"
    }
  ],
  "bytecode": {
    "object": "0x608060405234801561001057600080fd5b50604051610a1a380380610a1a83398101604081905261002f916100c1565b8046146100bb5760405162461bcd60e51b815260206004820152604a60248201527f636861696e204944206d69736d617463682e2061726520796f75206465706c6f60448201527f79696e6720426f6e7361695465737452656c617920746865206578706563746560648201526964206e6574776f726b3f60b01b608482015260a40160405180910390fd5b506100da565b6000602082840312156100d357600080fd5b5051919050565b610931806100e96000396000f3fe608060405234801561001057600080fd5b50600436106100575760003560e01c806313ef14121461005c57806359611e671461008557806383a19d39146100a8578063df055cf1146100bd578063e80802a2146100df575b600080fd5b61006f61006a36600461041d565b6100f2565b60405161007c9190610492565b60405180910390f35b610098610093366004610521565b610272565b604051901515815260200161007c565b6100bb6100b6366004610599565b610298565b005b6100d06100cb3660046105db565b61037a565b60405161007c93929190610646565b6100bb6100ed366004610694565b6103d2565b60608167ffffffffffffffff81111561010d5761010d610721565b604051908082528060200260200182016040528015610136578160200160208202803683370190505b50905060005b8281101561026b573684848381811061015757610157610737565b9050602002810190610169919061074d565b90506000368161017f6100cb604086018661076d565b9194509250905061019683838361009388806107b4565b61019f57600080fd5b6101af60408501602086016107ca565b6001600160a01b03166101c860808601606087016107e5565b67ffffffffffffffff166101df604087018761076d565b6040516101ed929190610800565b60006040518083038160008787f1925050503d806000811461022b576040519150601f19603f3d011682016040523d82523d6000602084013e610230565b606091505b505086868151811061024457610244610737565b6020026020010181151515158152505050505050808061026390610826565b91505061013c565b5092915050565b600061027e828061076d565b159050801561028f57506020820135155b95945050505050565b600036816102ac6100cb604086018661076d565b919450925090506102c383838361009388806107b4565b6102cc57600080fd5b6000806102df60408701602088016107ca565b6001600160a01b03166102f860808801606089016107e5565b67ffffffffffffffff1661030f604089018961076d565b60405161031d929190610800565b60006040518083038160008787f1925050503d806000811461035b576040519150601f19603f3d011682016040523d82523d6000602084013e610360565b606091505b50915091508161037257805160208201fd5b505050505050565b6000368180858561038c60208261083f565b610397928290610858565b6103a091610882565b9050366000876004886103b460208261083f565b926103c193929190610858565b939650945091925050509250925092565b7f105b7c9dbbc865638cd7873341700bcf4c62dfc9a4f221425b56fde3408f6a853387878787878760405161040d97969594939291906108a0565b60405180910390a1505050505050565b6000806020838503121561043057600080fd5b823567ffffffffffffffff8082111561044857600080fd5b818501915085601f83011261045c57600080fd5b81358181111561046b57600080fd5b8660208260051b850101111561048057600080fd5b60209290920196919550909350505050565b6020808252825182820181905260009190848201906040850190845b818110156104cc5783511515835292840192918401916001016104ae565b50909695505050505050565b60008083601f8401126104ea57600080fd5b50813567ffffffffffffffff81111561050257600080fd5b60208301915083602082850101111561051a57600080fd5b9250929050565b6000806000806060858703121561053757600080fd5b84359350602085013567ffffffffffffffff8082111561055657600080fd5b610562888389016104d8565b9095509350604087013591508082111561057b57600080fd5b5085016040818803121561058e57600080fd5b939692955090935050565b6000602082840312156105ab57600080fd5b813567ffffffffffffffff8111156105c257600080fd5b8201608081850312156105d457600080fd5b9392505050565b600080602083850312156105ee57600080fd5b823567ffffffffffffffff81111561060557600080fd5b610611858286016104d8565b90969095509350505050565b81835281816020850137506000828201602090810191909152601f909101601f19169091010190565b83815260406020820152600061028f60408301848661061d565b80356001600160a01b038116811461067757600080fd5b919050565b803567ffffffffffffffff8116811461067757600080fd5b60008060008060008060a087890312156106ad57600080fd5b86359550602087013567ffffffffffffffff8111156106cb57600080fd5b6106d789828a016104d8565b90965094506106ea905060408801610660565b925060608701356001600160e01b03198116811461070757600080fd5b91506107156080880161067c565b90509295509295509295565b634e487b7160e01b600052604160045260246000fd5b634e487b7160e01b600052603260045260246000fd5b60008235607e1983360301811261076357600080fd5b9190910192915050565b6000808335601e1984360301811261078457600080fd5b83018035915067ffffffffffffffff82111561079f57600080fd5b60200191503681900382131561051a57600080fd5b60008235603e1983360301811261076357600080fd5b6000602082840312156107dc57600080fd5b6105d482610660565b6000602082840312156107f757600080fd5b6105d48261067c565b8183823760009101908152919050565b634e487b7160e01b600052601160045260246000fd5b60006001820161083857610838610810565b5060010190565b8181038181111561085257610852610810565b92915050565b6000808585111561086857600080fd5b8386111561087557600080fd5b5050820193919092039150565b8035602083101561085257600019602084900360031b1b1692915050565b600060018060a01b03808a16835288602084015260c060408401526108c960c08401888a61061d565b95166060830152506001600160e01b031992909216608083015267ffffffffffffffff1660a09091015294935050505056fea264697066735822122022bba5eb8cc06d1501bfeac2816aa01b7d9412fe7e4b171327967d8120a5195b64736f6c63430008140033",
    "linkReferences": {}
  },
  "methodIdentifiers": {
    "callbackIsAuthorized(bytes32,bytes,(bytes,bytes32))": "59611e67",
    "invokeCallback(((bytes,bytes32),address,bytes,uint64))": "83a19d39",
    "invokeCallbacks(((bytes,bytes32),address,bytes,uint64)[])": "13ef1412",
    "parsePayload(bytes)": "df055cf1",
    "requestCallback(bytes32,bytes,address,bytes4,uint64)": "e80802a2"
  },
  "id": 6
}