{
  "abi": [
    {
      "inputs": [
        {
          "internalType": "bytes32",
          "name": "_image_id",
          "type": "bytes32"
        },
        {
          "internalType": "contract BonsaiTestRelay",
          "name": "_bonsai_test_relay",
          "type": "address"
        }
      ],
      "stateMutability": "nonpayable",
      "type": "constructor"
    },
    {
      "inputs": [
        {
          "internalType": "uint256",
          "name": "number",
          "type": "uint256"
        },
        {
          "internalType": "bool",
          "name": "guess",
          "type": "bool"
        },
        {
          "internalType": "bytes32",
          "name": "callback_image_id",
          "type": "bytes32"
        }
      ],
      "name": "call_me",
      "outputs": [
        {
          "internalType": "uint256",
          "name": "",
          "type": "uint256"
        },
        {
          "internalType": "bytes32",
          "name": "",
          "type": "bytes32"
        },
        {
          "internalType": "bool",
          "name": "",
          "type": "bool"
        }
      ],
      "stateMutability": "nonpayable",
      "type": "function"
    },
    {
      "inputs": [],
      "name": "counter",
      "outputs": [
        {
          "internalType": "uint256",
          "name": "",
          "type": "uint256"
        }
      ],
      "stateMutability": "view",
      "type": "function"
    }
  ],
  "bytecode": {
    "object": "0x608060405234801561001057600080fd5b506040516103dc3803806103dc83398101604081905261002f91610065565b60038054336001600160a01b031991821617909155600292909255600180549092166001600160a01b03919091161790556100a2565b6000806040838503121561007857600080fd5b825160208401519092506001600160a01b038116811461009757600080fd5b809150509250929050565b61032b806100b16000396000f3fe608060405234801561001057600080fd5b50600436106100365760003560e01c806361bc221a1461003b578063a9828ea614610057575b600080fd5b61004460005481565b6040519081526020015b60405180910390f35b61006a610065366004610227565b610087565b60408051938452602084019290925215159082015260600161004e565b600154600090819081906001600160a01b031633146101135760405162461bcd60e51b815260206004820152603760248201527f6f6e6c7920626f6e7361692072656c6179207465737420636f6e74726163742060448201527f697320616c6c6f77656420666f722063616c6c6261636b00000000000000000060648201526084015b60405180910390fd5b83600254146101585760405162461bcd60e51b81526020600482015260116024820152700d2dac2ceca40d2c840dad2e6dac2e8c6d607b1b604482015260640161010a565b6101628686610171565b92509250925093509350939050565b60008060008060028660405160200161018c91815260200190565b60408051601f19818403018152908290526101a691610264565b602060405180830381855afa1580156101c3573d6000803e3d6000fd5b5050506040513d601f19601f820116820180604052508101906101e69190610293565b905060006101f56002836102ac565b15905060008680156102045750815b6000805491925080610215836102ce565b90915550989297509550909350505050565b60008060006060848603121561023c57600080fd5b833592506020840135801515811461025357600080fd5b929592945050506040919091013590565b6000825160005b81811015610285576020818601810151858301520161026b565b506000920191825250919050565b6000602082840312156102a557600080fd5b5051919050565b6000826102c957634e487b7160e01b600052601260045260246000fd5b500690565b6000600182016102ee57634e487b7160e01b600052601160045260246000fd5b506001019056fea26469706673582212204fec4a4b60240894e9e66d1b2be74e99127d4b68f31525657598f9c3814e180564736f6c63430008140033",
    "linkReferences": {}
  },
  "methodIdentifiers": {
    "call_me(uint256,bool,bytes32)": "a9828ea6",
    "counter()": "61bc221a"
  },
  "id": 9
}