{
  "abi": [
    {
      "inputs": [],
      "stateMutability": "nonpayable",
      "type": "constructor"
    },
    {
      "anonymous": false,
      "inputs": [
        {
          "indexed": false,
          "internalType": "address",
          "name": "account",
          "type": "address"
        },
        {
          "indexed": false,
          "internalType": "bytes32",
          "name": "image_id",
          "type": "bytes32"
        },
        {
          "indexed": false,
          "internalType": "bytes",
          "name": "input",
          "type": "bytes"
        },
        {
          "indexed": false,
          "internalType": "address",
          "name": "callback_contract",
          "type": "address"
        },
        {
          "indexed": false,
          "internalType": "bytes4",
          "name": "function_selector",
          "type": "bytes4"
        },
        {
          "indexed": false,
          "internalType": "uint64",
          "name": "gas_limit",
          "type": "uint64"
        }
      ],
      "name": "CallbackRequest",
      "type": "event"
    },
    {
      "inputs": [],
      "name": "initialize",
      "outputs": [],
      "stateMutability": "nonpayable",
      "type": "function"
    },
    {
      "inputs": [
        {
          "components": [
            {
              "internalType": "address",
              "name": "callback_contract",
              "type": "address"
            },
            {
              "components": [
                {
                  "internalType": "uint256[2]",
                  "name": "a",
                  "type": "uint256[2]"
                },
                {
                  "internalType": "uint256[2][2]",
                  "name": "b",
                  "type": "uint256[2][2]"
                },
                {
                  "internalType": "uint256[2]",
                  "name": "c",
                  "type": "uint256[2]"
                },
                {
                  "internalType": "uint256[4]",
                  "name": "pubSignals",
                  "type": "uint256[4]"
                }
              ],
              "internalType": "struct Proxy.SnarkProof",
              "name": "proof",
              "type": "tuple"
            },
            {
              "internalType": "bytes",
              "name": "payload",
              "type": "bytes"
            },
            {
              "internalType": "uint64",
              "name": "gas_limit",
              "type": "uint64"
            }
          ],
          "internalType": "struct Proxy.Callback[]",
          "name": "callbacks",
          "type": "tuple[]"
        }
      ],
      "name": "invoke_callback",
      "outputs": [
        {
          "internalType": "bool[]",
          "name": "invocation_results",
          "type": "bool[]"
        }
      ],
      "stateMutability": "nonpayable",
      "type": "function"
    },
    {
      "inputs": [],
      "name": "owner",
      "outputs": [
        {
          "internalType": "address",
          "name": "",
          "type": "address"
        }
      ],
      "stateMutability": "view",
      "type": "function"
    },
    {
      "inputs": [
        {
          "internalType": "bytes32",
          "name": "image_id",
          "type": "bytes32"
        },
        {
          "internalType": "bytes",
          "name": "input",
          "type": "bytes"
        },
        {
          "internalType": "address",
          "name": "callback_contract",
          "type": "address"
        },
        {
          "internalType": "bytes4",
          "name": "function_selector",
          "type": "bytes4"
        },
        {
          "internalType": "uint64",
          "name": "gas_limit",
          "type": "uint64"
        }
      ],
      "name": "requestCallback",
      "outputs": [],
      "stateMutability": "nonpayable",
      "type": "function"
    }
  ],
  "bytecode": {
    "object": "0x608060405234801561001057600080fd5b5061001f61002460201b60201c565b610152565b6000151560008054906101000a900460ff16151514610078576040517f08c379a000000000000000000000000000000000000000000000000000000000815260040161006f90610132565b60405180910390fd5b33600060016101000a81548173ffffffffffffffffffffffffffffffffffffffff021916908373ffffffffffffffffffffffffffffffffffffffff16021790555060016000806101000a81548160ff021916908315150217905550565b600082825260208201905092915050565b7f636f6e747261637420616c726561647920696e697469616c697a656400000000600082015250565b600061011c601c836100d5565b9150610127826100e6565b602082019050919050565b6000602082019050818103600083015261014b8161010f565b9050919050565b610c48806101616000396000f3fe608060405234801561001057600080fd5b506004361061004c5760003560e01c80638129fc1c146100515780638da5cb5b1461005b578063c29ca88e14610079578063e80802a2146100a9575b600080fd5b6100596100c5565b005b610063610176565b604051610070919061046a565b60405180910390f35b610093600480360381019061008e91906104f4565b61019c565b6040516100a0919061060b565b60405180910390f35b6100c360048036038101906100be919061077d565b6103de565b005b6000151560008054906101000a900460ff16151514610119576040517f08c379a000000000000000000000000000000000000000000000000000000000815260040161011090610874565b60405180910390fd5b33600060016101000a81548173ffffffffffffffffffffffffffffffffffffffff021916908373ffffffffffffffffffffffffffffffffffffffff16021790555060016000806101000a81548160ff021916908315150217905550565b600060019054906101000a900473ffffffffffffffffffffffffffffffffffffffff1681565b6060600060019054906101000a900473ffffffffffffffffffffffffffffffffffffffff1673ffffffffffffffffffffffffffffffffffffffff163373ffffffffffffffffffffffffffffffffffffffff161461022e576040517f08c379a0000000000000000000000000000000000000000000000000000000008152600401610225906108e0565b60405180910390fd5b8282905067ffffffffffffffff81111561024b5761024a610900565b5b6040519080825280602002602001820160405280156102795781602001602082028036833780820191505090505b50905060005b838390508110156103d75783838281811061029d5761029c61092f565b5b90506020028101906102af919061096d565b60000160208101906102c19190610996565b73ffffffffffffffffffffffffffffffffffffffff168484838181106102ea576102e961092f565b5b90506020028101906102fc919061096d565b6101c001602081019061030f91906109c3565b67ffffffffffffffff1685858481811061032c5761032b61092f565b5b905060200281019061033e919061096d565b806101a0019061034e91906109f0565b60405161035c929190610a92565b60006040518083038160008787f1925050503d806000811461039a576040519150601f19603f3d011682016040523d82523d6000602084013e61039f565b606091505b50508282815181106103b4576103b361092f565b5b6020026020010181151515158152505080806103cf90610ae4565b91505061027f565b5092915050565b7f105b7c9dbbc865638cd7873341700bcf4c62dfc9a4f221425b56fde3408f6a85338787878787876040516104199796959493929190610ba8565b60405180910390a1505050505050565b600073ffffffffffffffffffffffffffffffffffffffff82169050919050565b600061045482610429565b9050919050565b61046481610449565b82525050565b600060208201905061047f600083018461045b565b92915050565b600080fd5b600080fd5b600080fd5b600080fd5b600080fd5b60008083601f8401126104b4576104b361048f565b5b8235905067ffffffffffffffff8111156104d1576104d0610494565b5b6020830191508360208202830111156104ed576104ec610499565b5b9250929050565b6000806020838503121561050b5761050a610485565b5b600083013567ffffffffffffffff8111156105295761052861048a565b5b6105358582860161049e565b92509250509250929050565b600081519050919050565b600082825260208201905092915050565b6000819050602082019050919050565b60008115159050919050565b6105828161056d565b82525050565b60006105948383610579565b60208301905092915050565b6000602082019050919050565b60006105b882610541565b6105c2818561054c565b93506105cd8361055d565b8060005b838110156105fe5781516105e58882610588565b97506105f0836105a0565b9250506001810190506105d1565b5085935050505092915050565b6000602082019050818103600083015261062581846105ad565b905092915050565b6000819050919050565b6106408161062d565b811461064b57600080fd5b50565b60008135905061065d81610637565b92915050565b60008083601f8401126106795761067861048f565b5b8235905067ffffffffffffffff81111561069657610695610494565b5b6020830191508360018202830111156106b2576106b1610499565b5b9250929050565b6106c281610449565b81146106cd57600080fd5b50565b6000813590506106df816106b9565b92915050565b60007fffffffff0000000000000000000000000000000000000000000000000000000082169050919050565b61071a816106e5565b811461072557600080fd5b50565b60008135905061073781610711565b92915050565b600067ffffffffffffffff82169050919050565b61075a8161073d565b811461076557600080fd5b50565b60008135905061077781610751565b92915050565b60008060008060008060a0878903121561079a57610799610485565b5b60006107a889828a0161064e565b965050602087013567ffffffffffffffff8111156107c9576107c861048a565b5b6107d589828a01610663565b955095505060406107e889828a016106d0565b93505060606107f989828a01610728565b925050608061080a89828a01610768565b9150509295509295509295565b600082825260208201905092915050565b7f636f6e747261637420616c726561647920696e697469616c697a656400000000600082015250565b600061085e601c83610817565b915061086982610828565b602082019050919050565b6000602082019050818103600083015261088d81610851565b9050919050565b7f44656e6965640000000000000000000000000000000000000000000000000000600082015250565b60006108ca600683610817565b91506108d582610894565b602082019050919050565b600060208201905081810360008301526108f9816108bd565b9050919050565b7f4e487b7100000000000000000000000000000000000000000000000000000000600052604160045260246000fd5b7f4e487b7100000000000000000000000000000000000000000000000000000000600052603260045260246000fd5b600080fd5b600080fd5b600080fd5b6000823560016101e00383360303811261098a5761098961095e565b5b80830191505092915050565b6000602082840312156109ac576109ab610485565b5b60006109ba848285016106d0565b91505092915050565b6000602082840312156109d9576109d8610485565b5b60006109e784828501610768565b91505092915050565b60008083356001602003843603038112610a0d57610a0c61095e565b5b80840192508235915067ffffffffffffffff821115610a2f57610a2e610963565b5b602083019250600182023603831315610a4b57610a4a610968565b5b509250929050565b600081905092915050565b82818337600083830152505050565b6000610a798385610a53565b9350610a86838584610a5e565b82840190509392505050565b6000610a9f828486610a6d565b91508190509392505050565b7f4e487b7100000000000000000000000000000000000000000000000000000000600052601160045260246000fd5b6000819050919050565b6000610aef82610ada565b91507fffffffffffffffffffffffffffffffffffffffffffffffffffffffffffffffff8203610b2157610b20610aab565b5b600182019050919050565b610b358161062d565b82525050565b600082825260208201905092915050565b6000601f19601f8301169050919050565b6000610b698385610b3b565b9350610b76838584610a5e565b610b7f83610b4c565b840190509392505050565b610b93816106e5565b82525050565b610ba28161073d565b82525050565b600060c082019050610bbd600083018a61045b565b610bca6020830189610b2c565b8181036040830152610bdd818789610b5d565b9050610bec606083018661045b565b610bf96080830185610b8a565b610c0660a0830184610b99565b9897505050505050505056fea2646970667358221220a9b60ea8384218defdfbef3b39f4c08a40389556a9762eb3e00e1c307312583864736f6c63430008130033",
    "linkReferences": {}
  },
  "methodIdentifiers": {
    "initialize()": "8129fc1c",
    "invoke_callback((address,(uint256[2],uint256[2][2],uint256[2],uint256[4]),bytes,uint64)[])": "c29ca88e",
    "owner()": "8da5cb5b",
    "requestCallback(bytes32,bytes,address,bytes4,uint64)": "e80802a2"
  },
  "id": 1
}