{
  "abi": [
    {
      "inputs": [
        {
          "internalType": "contract IRiscZeroVerifier",
          "name": "verifier_",
          "type": "address"
        }
      ],
      "stateMutability": "nonpayable",
      "type": "constructor"
    },
    {
      "anonymous": false,
      "inputs": [
        {
          "indexed": false,
          "internalType": "address",
          "name": "account",
          "type": "address"
        },
        {
          "indexed": false,
          "internalType": "bytes32",
          "name": "imageId",
          "type": "bytes32"
        },
        {
          "indexed": false,
          "internalType": "bytes",
          "name": "input",
          "type": "bytes"
        },
        {
          "indexed": false,
          "internalType": "address",
          "name": "callbackContract",
          "type": "address"
        },
        {
          "indexed": false,
          "internalType": "bytes4",
          "name": "functionSelector",
          "type": "bytes4"
        },
        {
          "indexed": false,
          "internalType": "uint64",
          "name": "gasLimit",
          "type": "uint64"
        }
      ],
      "name": "CallbackRequest",
      "type": "event"
    },
    {
      "inputs": [
        {
          "internalType": "bytes32",
          "name": "imageId",
          "type": "bytes32"
        },
        {
          "internalType": "bytes",
          "name": "journal",
          "type": "bytes"
        },
        {
          "components": [
            {
              "internalType": "bytes",
              "name": "seal",
              "type": "bytes"
            },
            {
              "internalType": "bytes32",
              "name": "postStateDigest",
              "type": "bytes32"
            }
          ],
          "internalType": "struct CallbackAuthorization",
          "name": "auth",
          "type": "tuple"
        }
      ],
      "name": "callbackIsAuthorized",
      "outputs": [
        {
          "internalType": "bool",
          "name": "",
          "type": "bool"
        }
      ],
      "stateMutability": "view",
      "type": "function"
    },
    {
      "inputs": [
        {
          "components": [
            {
              "components": [
                {
                  "internalType": "bytes",
                  "name": "seal",
                  "type": "bytes"
                },
                {
                  "internalType": "bytes32",
                  "name": "postStateDigest",
                  "type": "bytes32"
                }
              ],
              "internalType": "struct CallbackAuthorization",
              "name": "auth",
              "type": "tuple"
            },
            {
              "internalType": "address",
              "name": "callbackContract",
              "type": "address"
            },
            {
              "internalType": "bytes",
              "name": "payload",
              "type": "bytes"
            },
            {
              "internalType": "uint64",
              "name": "gasLimit",
              "type": "uint64"
            }
          ],
          "internalType": "struct Callback",
          "name": "callback",
          "type": "tuple"
        }
      ],
      "name": "invokeCallback",
      "outputs": [],
      "stateMutability": "nonpayable",
      "type": "function"
    },
    {
      "inputs": [
        {
          "components": [
            {
              "components": [
                {
                  "internalType": "bytes",
                  "name": "seal",
                  "type": "bytes"
                },
                {
                  "internalType": "bytes32",
                  "name": "postStateDigest",
                  "type": "bytes32"
                }
              ],
              "internalType": "struct CallbackAuthorization",
              "name": "auth",
              "type": "tuple"
            },
            {
              "internalType": "address",
              "name": "callbackContract",
              "type": "address"
            },
            {
              "internalType": "bytes",
              "name": "payload",
              "type": "bytes"
            },
            {
              "internalType": "uint64",
              "name": "gasLimit",
              "type": "uint64"
            }
          ],
          "internalType": "struct Callback[]",
          "name": "callbacks",
          "type": "tuple[]"
        }
      ],
      "name": "invokeCallbacks",
      "outputs": [
        {
          "internalType": "bool[]",
          "name": "invocationResults",
          "type": "bool[]"
        }
      ],
      "stateMutability": "nonpayable",
      "type": "function"
    },
    {
      "inputs": [
        {
          "internalType": "bytes",
          "name": "payload",
          "type": "bytes"
        }
      ],
      "name": "parsePayload",
      "outputs": [
        {
          "internalType": "bytes32",
          "name": "",
          "type": "bytes32"
        },
        {
          "internalType": "bytes",
          "name": "",
          "type": "bytes"
        }
      ],
      "stateMutability": "pure",
      "type": "function"
    },
    {
      "inputs": [
        {
          "internalType": "bytes32",
          "name": "imageId",
          "type": "bytes32"
        },
        {
          "internalType": "bytes",
          "name": "input",
          "type": "bytes"
        },
        {
          "internalType": "address",
          "name": "callbackContract",
          "type": "address"
        },
        {
          "internalType": "bytes4",
          "name": "functionSelector",
          "type": "bytes4"
        },
        {
          "internalType": "uint64",
          "name": "gasLimit",
          "type": "uint64"
        }
      ],
      "name": "requestCallback",
      "outputs": [],
      "stateMutability": "nonpayable",
      "type": "function"
    }
  ],
  "bytecode": {
    "object": "0x60a060405234801561001057600080fd5b50604051610aff380380610aff83398101604081905261002f91610040565b6001600160a01b0316608052610070565b60006020828403121561005257600080fd5b81516001600160a01b038116811461006957600080fd5b9392505050565b608051610a7461008b600039600061027e0152610a746000f3fe608060405234801561001057600080fd5b50600436106100575760003560e01c806313ef14121461005c57806359611e671461008557806383a19d39146100a8578063df055cf1146100bd578063e80802a2146100df575b600080fd5b61006f61006a3660046104f4565b6100f2565b60405161007c9190610569565b60405180910390f35b6100986100933660046105f8565b610272565b604051901515815260200161007c565b6100bb6100b6366004610670565b61036f565b005b6100d06100cb3660046106b2565b610451565b60405161007c9392919061071d565b6100bb6100ed36600461076b565b6104a9565b60608167ffffffffffffffff81111561010d5761010d6107f8565b604051908082528060200260200182016040528015610136578160200160208202803683370190505b50905060005b8281101561026b57368484838181106101575761015761080e565b90506020028101906101699190610824565b90506000368161017f6100cb6040860186610844565b91945092509050610196838383610093888061088b565b61019f57600080fd5b6101af60408501602086016108a1565b6001600160a01b03166101c860808601606087016108bc565b67ffffffffffffffff166101df6040870187610844565b6040516101ed9291906108d7565b60006040518083038160008787f1925050503d806000811461022b576040519150601f19603f3d011682016040523d82523d6000602084013e610230565b606091505b50508686815181106102445761024461080e565b60200260200101811515151581525050505050508080610263906108fd565b91505061013c565b5092915050565b60006001600160a01b037f000000000000000000000000000000000000000000000000000000000000000016636efef0096102ad8480610844565b88866020013560028a8a6040516102c59291906108d7565b602060405180830381855afa1580156102e2573d6000803e3d6000fd5b5050506040513d601f19601f820116820180604052508101906103059190610916565b6040518663ffffffff1660e01b815260040161032595949392919061092f565b602060405180830381865afa158015610342573d6000803e3d6000fd5b505050506040513d601f19601f820116820180604052508101906103669190610960565b95945050505050565b600036816103836100cb6040860186610844565b9194509250905061039a838383610093888061088b565b6103a357600080fd5b6000806103b660408701602088016108a1565b6001600160a01b03166103cf60808801606089016108bc565b67ffffffffffffffff166103e66040890189610844565b6040516103f49291906108d7565b60006040518083038160008787f1925050503d8060008114610432576040519150601f19603f3d011682016040523d82523d6000602084013e610437565b606091505b50915091508161044957805160208201fd5b505050505050565b60003681808585610463602082610982565b61046e92829061099b565b610477916109c5565b90503660008760048861048b602082610982565b926104989392919061099b565b939650945091925050509250925092565b7f105b7c9dbbc865638cd7873341700bcf4c62dfc9a4f221425b56fde3408f6a85338787878787876040516104e497969594939291906109e3565b60405180910390a1505050505050565b6000806020838503121561050757600080fd5b823567ffffffffffffffff8082111561051f57600080fd5b818501915085601f83011261053357600080fd5b81358181111561054257600080fd5b8660208260051b850101111561055757600080fd5b60209290920196919550909350505050565b6020808252825182820181905260009190848201906040850190845b818110156105a3578351151583529284019291840191600101610585565b50909695505050505050565b60008083601f8401126105c157600080fd5b50813567ffffffffffffffff8111156105d957600080fd5b6020830191508360208285010111156105f157600080fd5b9250929050565b6000806000806060858703121561060e57600080fd5b84359350602085013567ffffffffffffffff8082111561062d57600080fd5b610639888389016105af565b9095509350604087013591508082111561065257600080fd5b5085016040818803121561066557600080fd5b939692955090935050565b60006020828403121561068257600080fd5b813567ffffffffffffffff81111561069957600080fd5b8201608081850312156106ab57600080fd5b9392505050565b600080602083850312156106c557600080fd5b823567ffffffffffffffff8111156106dc57600080fd5b6106e8858286016105af565b90969095509350505050565b81835281816020850137506000828201602090810191909152601f909101601f19169091010190565b8381526040602082015260006103666040830184866106f4565b80356001600160a01b038116811461074e57600080fd5b919050565b803567ffffffffffffffff8116811461074e57600080fd5b60008060008060008060a0878903121561078457600080fd5b86359550602087013567ffffffffffffffff8111156107a257600080fd5b6107ae89828a016105af565b90965094506107c1905060408801610737565b925060608701356001600160e01b0319811681146107de57600080fd5b91506107ec60808801610753565b90509295509295509295565b634e487b7160e01b600052604160045260246000fd5b634e487b7160e01b600052603260045260246000fd5b60008235607e1983360301811261083a57600080fd5b9190910192915050565b6000808335601e1984360301811261085b57600080fd5b83018035915067ffffffffffffffff82111561087657600080fd5b6020019150368190038213156105f157600080fd5b60008235603e1983360301811261083a57600080fd5b6000602082840312156108b357600080fd5b6106ab82610737565b6000602082840312156108ce57600080fd5b6106ab82610753565b8183823760009101908152919050565b634e487b7160e01b600052601160045260246000fd5b60006001820161090f5761090f6108e7565b5060010190565b60006020828403121561092857600080fd5b5051919050565b6080815260006109436080830187896106f4565b602083019590955250604081019290925260609091015292915050565b60006020828403121561097257600080fd5b815180151581146106ab57600080fd5b81810381811115610995576109956108e7565b92915050565b600080858511156109ab57600080fd5b838611156109b857600080fd5b5050820193919092039150565b8035602083101561099557600019602084900360031b1b1692915050565b600060018060a01b03808a16835288602084015260c06040840152610a0c60c08401888a6106f4565b95166060830152506001600160e01b031992909216608083015267ffffffffffffffff1660a09091015294935050505056fea264697066735822122029b7c70a17b3094718a0973b3e5e99d6866065eba717bc64743206831a1eac8b64736f6c63430008140033",
    "linkReferences": {}
  },
  "methodIdentifiers": {
    "callbackIsAuthorized(bytes32,bytes,(bytes,bytes32))": "59611e67",
    "invokeCallback(((bytes,bytes32),address,bytes,uint64))": "83a19d39",
    "invokeCallbacks(((bytes,bytes32),address,bytes,uint64)[])": "13ef1412",
    "parsePayload(bytes)": "df055cf1",
    "requestCallback(bytes32,bytes,address,bytes4,uint64)": "e80802a2"
  },
  "id": 3
}